:0200000080047A
:0200030001AF4B
:10000600D28875A88175900FC2B33000FD7538048B
:10001600C2017831E631002001F308D538F680EDCB
:10002600A2905011C297C295C296117AD294311BF2
:100036003001FBC29422A2915011C297C296C2947B
:10004600117AD295311B3001FBC29522A292501132
:10005600C297C295C294117AD296311B3001FBC267
:100066009622C294C295C296117AD297311B30015C
:10007600FBC297227539FF753AFFD53AFDD539F798
:100086002275393B753AA8D53AFDD539F722753B25
:100096006475393D753AA2D53AFDD539F7D53BF1A8
:1000A6002285B030E53054A322C2AFD2B311A7B433
:1000B60000F711A7B4000280F9F538F53111A7B59C
:1000C600380280F9F5386531F53211A7B538028066
:1000D600F9F53865316532F53311A7B5380280F97F
:1000E600F538653165326533F534D200D2B220B2C7
:1000F600FDC2B31194C289D2AF32B4010411268075
:1001060013B40204113C800CB4200411528005B4CF
:100116008002116822E590540FF5351187E5905459
:090126000FB535028002D201225E
:00000001FF
